{
  "_format": "hh-sol-artifact-1",
  "contractName": "MyEpicNFT",
  "sourceName": "contracts/MyEpicNFT.sol",
  "abi": [
    {
      "inputs": [],
      "stateMutability": "nonpayable",
      "type": "constructor"
    },
    {
      "anonymous": false,
      "inputs": [
        {
          "indexed": true,
          "internalType": "address",
          "name": "owner",
          "type": "address"
        },
        {
          "indexed": true,
          "internalType": "address",
          "name": "approved",
          "type": "address"
        },
        {
          "indexed": true,
          "internalType": "uint256",
          "name": "tokenId",
          "type": "uint256"
        }
      ],
      "name": "Approval",
      "type": "event"
    },
    {
      "anonymous": false,
      "inputs": [
        {
          "indexed": true,
          "internalType": "address",
          "name": "owner",
          "type": "address"
        },
        {
          "indexed": true,
          "internalType": "address",
          "name": "operator",
          "type": "address"
        },
        {
          "indexed": false,
          "internalType": "bool",
          "name": "approved",
          "type": "bool"
        }
      ],
      "name": "ApprovalForAll",
      "type": "event"
    },
    {
      "anonymous": false,
      "inputs": [
        {
          "indexed": false,
          "internalType": "address",
          "name": "sender",
          "type": "address"
        },
        {
          "indexed": false,
          "internalType": "uint256",
          "name": "tokenId",
          "type": "uint256"
        }
      ],
      "name": "NewEpicNFTMinted",
      "type": "event"
    },
    {
      "anonymous": false,
      "inputs": [
        {
          "indexed": true,
          "internalType": "address",
          "name": "from",
          "type": "address"
        },
        {
          "indexed": true,
          "internalType": "address",
          "name": "to",
          "type": "address"
        },
        {
          "indexed": true,
          "internalType": "uint256",
          "name": "tokenId",
          "type": "uint256"
        }
      ],
      "name": "Transfer",
      "type": "event"
    },
    {
      "inputs": [
        {
          "internalType": "address",
          "name": "to",
          "type": "address"
        },
        {
          "internalType": "uint256",
          "name": "tokenId",
          "type": "uint256"
        }
      ],
      "name": "approve",
      "outputs": [],
      "stateMutability": "nonpayable",
      "type": "function"
    },
    {
      "inputs": [
        {
          "internalType": "address",
          "name": "owner",
          "type": "address"
        }
      ],
      "name": "balanceOf",
      "outputs": [
        {
          "internalType": "uint256",
          "name": "",
          "type": "uint256"
        }
      ],
      "stateMutability": "view",
      "type": "function"
    },
    {
      "inputs": [
        {
          "internalType": "uint256",
          "name": "tokenId",
          "type": "uint256"
        }
      ],
      "name": "getApproved",
      "outputs": [
        {
          "internalType": "address",
          "name": "",
          "type": "address"
        }
      ],
      "stateMutability": "view",
      "type": "function"
    },
    {
      "inputs": [
        {
          "internalType": "address",
          "name": "owner",
          "type": "address"
        },
        {
          "internalType": "address",
          "name": "operator",
          "type": "address"
        }
      ],
      "name": "isApprovedForAll",
      "outputs": [
        {
          "internalType": "bool",
          "name": "",
          "type": "bool"
        }
      ],
      "stateMutability": "view",
      "type": "function"
    },
    {
      "inputs": [],
      "name": "makeAnEpicNFT",
      "outputs": [],
      "stateMutability": "nonpayable",
      "type": "function"
    },
    {
      "inputs": [],
      "name": "name",
      "outputs": [
        {
          "internalType": "string",
          "name": "",
          "type": "string"
        }
      ],
      "stateMutability": "view",
      "type": "function"
    },
    {
      "inputs": [
        {
          "internalType": "uint256",
          "name": "tokenId",
          "type": "uint256"
        }
      ],
      "name": "ownerOf",
      "outputs": [
        {
          "internalType": "address",
          "name": "",
          "type": "address"
        }
      ],
      "stateMutability": "view",
      "type": "function"
    },
    {
      "inputs": [
        {
          "internalType": "uint256",
          "name": "tokenId",
          "type": "uint256"
        }
      ],
      "name": "pickRandomColor",
      "outputs": [
        {
          "internalType": "string",
          "name": "",
          "type": "string"
        }
      ],
      "stateMutability": "view",
      "type": "function"
    },
    {
      "inputs": [
        {
          "internalType": "uint256",
          "name": "tokenId",
          "type": "uint256"
        }
      ],
      "name": "pickRandomFirstWord",
      "outputs": [
        {
          "internalType": "string",
          "name": "",
          "type": "string"
        }
      ],
      "stateMutability": "view",
      "type": "function"
    },
    {
      "inputs": [
        {
          "internalType": "uint256",
          "name": "tokenId",
          "type": "uint256"
        }
      ],
      "name": "pickRandomSecondWord",
      "outputs": [
        {
          "internalType": "string",
          "name": "",
          "type": "string"
        }
      ],
      "stateMutability": "view",
      "type": "function"
    },
    {
      "inputs": [
        {
          "internalType": "uint256",
          "name": "tokenId",
          "type": "uint256"
        }
      ],
      "name": "pickRandomThirdWord",
      "outputs": [
        {
          "internalType": "string",
          "name": "",
          "type": "string"
        }
      ],
      "stateMutability": "view",
      "type": "function"
    },
    {
      "inputs": [
        {
          "internalType": "address",
          "name": "from",
          "type": "address"
        },
        {
          "internalType": "address",
          "name": "to",
          "type": "address"
        },
        {
          "internalType": "uint256",
          "name": "tokenId",
          "type": "uint256"
        }
      ],
      "name": "safeTransferFrom",
      "outputs": [],
      "stateMutability": "nonpayable",
      "type": "function"
    },
    {
      "inputs": [
        {
          "internalType": "address",
          "name": "from",
          "type": "address"
        },
        {
          "internalType": "address",
          "name": "to",
          "type": "address"
        },
        {
          "internalType": "uint256",
          "name": "tokenId",
          "type": "uint256"
        },
        {
          "internalType": "bytes",
          "name": "_data",
          "type": "bytes"
        }
      ],
      "name": "safeTransferFrom",
      "outputs": [],
      "stateMutability": "nonpayable",
      "type": "function"
    },
    {
      "inputs": [
        {
          "internalType": "address",
          "name": "operator",
          "type": "address"
        },
        {
          "internalType": "bool",
          "name": "approved",
          "type": "bool"
        }
      ],
      "name": "setApprovalForAll",
      "outputs": [],
      "stateMutability": "nonpayable",
      "type": "function"
    },
    {
      "inputs": [
        {
          "internalType": "bytes4",
          "name": "interfaceId",
          "type": "bytes4"
        }
      ],
      "name": "supportsInterface",
      "outputs": [
        {
          "internalType": "bool",
          "name": "",
          "type": "bool"
        }
      ],
      "stateMutability": "view",
      "type": "function"
    },
    {
      "inputs": [],
      "name": "symbol",
      "outputs": [
        {
          "internalType": "string",
          "name": "",
          "type": "string"
        }
      ],
      "stateMutability": "view",
      "type": "function"
    },
    {
      "inputs": [
        {
          "internalType": "uint256",
          "name": "tokenId",
          "type": "uint256"
        }
      ],
      "name": "tokenURI",
      "outputs": [
        {
          "internalType": "string",
          "name": "",
          "type": "string"
        }
      ],
      "stateMutability": "view",
      "type": "function"
    },
    {
      "inputs": [
        {
          "internalType": "address",
          "name": "from",
          "type": "address"
        },
        {
          "internalType": "address",
          "name": "to",
          "type": "address"
        },
        {
          "internalType": "uint256",
          "name": "tokenId",
          "type": "uint256"
        }
      ],
      "name": "transferFrom",
      "outputs": [],
      "stateMutability": "nonpayable",
      "type": "function"
    }
  ],
  "bytecode": "0x608060405260405180610100016040528060d38152602001620047ad60d39139600890805190602001906200003692919062000a06565b506040518060800160405280605681526020016200488060569139600990805190602001906200006892919062000a06565b5060405180608001604052806040518060400160405280600381526020017f726564000000000000000000000000000000000000000000000000000000000081525081526020016040518060400160405280600681526020017f79656c6c6f77000000000000000000000000000000000000000000000000000081525081526020016040518060400160405280600481526020017f626c75650000000000000000000000000000000000000000000000000000000081525081526020016040518060400160405280600581526020017f677265656e000000000000000000000000000000000000000000000000000000815250815250600a9060046200017092919062000a97565b506040518060c001604052806040518060400160405280600381526020017f53756e000000000000000000000000000000000000000000000000000000000081525081526020016040518060400160405280600481526020017f4d6f6f6e0000000000000000000000000000000000000000000000000000000081525081526020016040518060400160405280600481526020017f537461720000000000000000000000000000000000000000000000000000000081525081526020016040518060400160405280600381526020017f596f75000000000000000000000000000000000000000000000000000000000081525081526020016040518060400160405280600381526020017f536865000000000000000000000000000000000000000000000000000000000081525081526020016040518060400160405280600281526020017f4865000000000000000000000000000000000000000000000000000000000000815250815250600b906006620002ee92919062000afe565b506040518061018001604052806040518060400160405280600381526020017f535452000000000000000000000000000000000000000000000000000000000081525081526020016040518060400160405280600381526020017f564954000000000000000000000000000000000000000000000000000000000081525081526020016040518060400160405280600381526020017f414749000000000000000000000000000000000000000000000000000000000081525081526020016040518060400160405280600381526020017f574953000000000000000000000000000000000000000000000000000000000081525081526020016040518060400160405280600381526020017f4d4e44000000000000000000000000000000000000000000000000000000000081525081526020016040518060400160405280600381526020017f41544b000000000000000000000000000000000000000000000000000000000081525081526020016040518060400160405280600381526020017f444546000000000000000000000000000000000000000000000000000000000081525081526020016040518060400160405280600381526020017f484954000000000000000000000000000000000000000000000000000000000081525081526020016040518060400160405280600381526020017f415644000000000000000000000000000000000000000000000000000000000081525081526020016040518060400160405280600381526020017f4d474b000000000000000000000000000000000000000000000000000000000081525081526020016040518060400160405280600381526020017f524753000000000000000000000000000000000000000000000000000000000081525081526020016040518060400160405280600381526020017f524e470000000000000000000000000000000000000000000000000000000000815250815250600c90600c620005cf92919062000b65565b506040518061014001604052806040518060400160405280600281526020017f313000000000000000000000000000000000000000000000000000000000000081525081526020016040518060400160405280600281526020017f323000000000000000000000000000000000000000000000000000000000000081525081526020016040518060400160405280600281526020017f333000000000000000000000000000000000000000000000000000000000000081525081526020016040518060400160405280600281526020017f343000000000000000000000000000000000000000000000000000000000000081525081526020016040518060400160405280600281526020017f353000000000000000000000000000000000000000000000000000000000000081525081526020016040518060400160405280600281526020017f363000000000000000000000000000000000000000000000000000000000000081525081526020016040518060400160405280600281526020017f373000000000000000000000000000000000000000000000000000000000000081525081526020016040518060400160405280600281526020017f383000000000000000000000000000000000000000000000000000000000000081525081526020016040518060400160405280600281526020017f393000000000000000000000000000000000000000000000000000000000000081525081526020016040518060400160405280600381526020017f3130300000000000000000000000000000000000000000000000000000000000815250815250600d90600a6200083a92919062000bcc565b503480156200084857600080fd5b506040518060400160405280600981526020017f5371756172654e465400000000000000000000000000000000000000000000008152506040518060400160405280600681526020017f53515541524500000000000000000000000000000000000000000000000000008152508160009080519060200190620008cd92919062000a06565b508060019080519060200190620008e692919062000a06565b505050620009346040518060400160405280601e81526020017f54686973206973206d79204e465420636f6e74726163742e20576f61682100008152506200093a60201b620013f71760201c565b62000ded565b620009da8160405160240162000951919062000d01565b6040516020818303038152906040527f41304fac000000000000000000000000000000000000000000000000000000007bffffffffffffffffffffffffffffffffffffffffffffffffffffffff19166020820180517bffffffffffffffffffffffffffffffffffffffffffffffffffffffff8381831617835250505050620009dd60201b60201c565b50565b60008151905060006a636f6e736f6c652e6c6f679050602083016000808483855afa5050505050565b82805462000a149062000d77565b90600052602060002090601f01602090048101928262000a38576000855562000a84565b82601f1062000a5357805160ff191683800117855562000a84565b8280016001018555821562000a84579182015b8281111562000a8357825182559160200191906001019062000a66565b5b50905062000a93919062000c33565b5090565b82805482825590600052602060002090810192821562000aeb579160200282015b8281111562000aea57825182908051906020019062000ad992919062000a06565b509160200191906001019062000ab8565b5b50905062000afa919062000c52565b5090565b82805482825590600052602060002090810192821562000b52579160200282015b8281111562000b5157825182908051906020019062000b4092919062000a06565b509160200191906001019062000b1f565b5b50905062000b61919062000c52565b5090565b82805482825590600052602060002090810192821562000bb9579160200282015b8281111562000bb857825182908051906020019062000ba792919062000a06565b509160200191906001019062000b86565b5b50905062000bc8919062000c52565b5090565b82805482825590600052602060002090810192821562000c20579160200282015b8281111562000c1f57825182908051906020019062000c0e92919062000a06565b509160200191906001019062000bed565b5b50905062000c2f919062000c52565b5090565b5b8082111562000c4e57600081600090555060010162000c34565b5090565b5b8082111562000c76576000818162000c6c919062000c7a565b5060010162000c53565b5090565b50805462000c889062000d77565b6000825580601f1062000c9c575062000cbd565b601f01602090049060005260206000209081019062000cbc919062000c33565b5b50565b600062000ccd8262000d25565b62000cd9818562000d30565b935062000ceb81856020860162000d41565b62000cf68162000ddc565b840191505092915050565b6000602082019050818103600083015262000d1d818462000cc0565b905092915050565b600081519050919050565b600082825260208201905092915050565b60005b8381101562000d6157808201518184015260208101905062000d44565b8381111562000d71576000848401525b50505050565b6000600282049050600182168062000d9057607f821691505b6020821081141562000da75762000da662000dad565b5b50919050565b7f4e487b7100000000000000000000000000000000000000000000000000000000600052602260045260246000fd5b6000601f19601f8301169050919050565b6139b08062000dfd6000396000f3fe608060405234801561001057600080fd5b50600436106101165760003560e01c806370a08231116100a2578063b88d4fde11610071578063b88d4fde14610317578063c575757a14610333578063c87b56dd14610363578063de9d132f14610393578063e985e9c51461039d57610116565b806370a082311461027d57806395d89b41146102ad578063a22cb465146102cb578063b187301f146102e757610116565b806323b872dd116100e957806323b872dd146101b55780632de38d68146101d157806342842e0e14610201578063514dc8c61461021d5780636352211e1461024d57610116565b806301ffc9a71461011b57806306fdde031461014b578063081812fc14610169578063095ea7b314610199575b600080fd5b610135600480360381019061013091906125eb565b6103cd565b6040516101429190613289565b60405180910390f35b6101536104af565b60405161016091906132a4565b60405180910390f35b610183600480360381019061017e919061263d565b610541565b60405161019091906131f9565b60405180910390f35b6101b360048036038101906101ae91906125af565b6105c6565b005b6101cf60048036038101906101ca91906124a9565b6106de565b005b6101eb60048036038101906101e6919061263d565b61073e565b6040516101f891906132a4565b60405180910390f35b61021b600480360381019061021691906124a9565b61085c565b005b6102376004803603810190610232919061263d565b61087c565b60405161024491906132a4565b60405180910390f35b6102676004803603810190610262919061263d565b61099a565b60405161027491906131f9565b60405180910390f35b61029760048036038101906102929190612444565b610a4c565b6040516102a491906134c6565b60405180910390f35b6102b5610b04565b6040516102c291906132a4565b60405180910390f35b6102e560048036038101906102e09190612573565b610b96565b005b61030160048036038101906102fc919061263d565b610d17565b60405161030e91906132a4565b60405180910390f35b610331600480360381019061032c91906124f8565b610e35565b005b61034d6004803603810190610348919061263d565b610e97565b60405161035a91906132a4565b60405180910390f35b61037d6004803603810190610378919061263d565b610fb5565b60405161038a91906132a4565b60405180910390f35b61039b611107565b005b6103b760048036038101906103b2919061246d565b611363565b6040516103c49190613289565b60405180910390f35b60007f80ac58cd000000000000000000000000000000000000000000000000000000007bffffffffffffffffffffffffffffffffffffffffffffffffffffffff1916827bffffffffffffffffffffffffffffffffffffffffffffffffffffffff1916148061049857507f5b5e139f000000000000000000000000000000000000000000000000000000007bffffffffffffffffffffffffffffffffffffffffffffffffffffffff1916827bffffffffffffffffffffffffffffffffffffffffffffffffffffffff1916145b806104a857506104a782611490565b5b9050919050565b6060600080546104be90613765565b80601f01602080910402602001604051908101604052809291908181526020018280546104ea90613765565b80156105375780601f1061050c57610100808354040283529160200191610537565b820191906000526020600020905b81548152906001019060200180831161051a57829003601f168201915b5050505050905090565b600061054c826114fa565b61058b576040517f08c379a000000000000000000000000000000000000000000000000000000000815260040161058290613426565b60405180910390fd5b6004600083815260200190815260200160002060009054906101000a900473ffffffffffffffffffffffffffffffffffffffff169050919050565b60006105d18261099a565b90508073ffffffffffffffffffffffffffffffffffffffff168373ffffffffffffffffffffffffffffffffffffffff161415610642576040517f08c379a000000000000000000000000000000000000000000000000000000000815260040161063990613486565b60405180910390fd5b8073ffffffffffffffffffffffffffffffffffffffff16610661611566565b73ffffffffffffffffffffffffffffffffffffffff161480610690575061068f8161068a611566565b611363565b5b6106cf576040517f08c379a00000000000000000000000000000000000000000000000000000000081526004016106c690613366565b60405180910390fd5b6106d9838361156e565b505050565b6106ef6106e9611566565b82611627565b61072e576040517f08c379a0000000000000000000000000000000000000000000000000000000008152600401610725906134a6565b60405180910390fd5b610739838383611705565b505050565b6060600061077261074e84611961565b60405160200161075e9190613193565b604051602081830303815290604052611b0e565b9050600b805490508161078591906137e0565b9050600b81815481106107c1577f4e487b7100000000000000000000000000000000000000000000000000000000600052603260045260246000fd5b9060005260206000200180546107d690613765565b80601f016020809104026020016040519081016040528092919081815260200182805461080290613765565b801561084f5780601f106108245761010080835404028352916020019161084f565b820191906000526020600020905b81548152906001019060200180831161083257829003601f168201915b5050505050915050919050565b61087783838360405180602001604052806000815250610e35565b505050565b606060006108b061088c84611961565b60405160200161089c91906131d7565b604051602081830303815290604052611b0e565b9050600a80549050816108c391906137e0565b9050600a81815481106108ff577f4e487b7100000000000000000000000000000000000000000000000000000000600052603260045260246000fd5b90600052602060002001805461091490613765565b80601f016020809104026020016040519081016040528092919081815260200182805461094090613765565b801561098d5780601f106109625761010080835404028352916020019161098d565b820191906000526020600020905b81548152906001019060200180831161097057829003601f168201915b5050505050915050919050565b6000806002600084815260200190815260200160002060009054906101000a900473ffffffffffffffffffffffffffffffffffffffff169050600073ffffffffffffffffffffffffffffffffffffffff168173ffffffffffffffffffffffffffffffffffffffff161415610a43576040517f08c379a0000000000000000000000000000000000000000000000000000000008152600401610a3a906133a6565b60405180910390fd5b80915050919050565b60008073ffffffffffffffffffffffffffffffffffffffff168273ffffffffffffffffffffffffffffffffffffffff161415610abd576040517f08c379a0000000000000000000000000000000000000000000000000000000008152600401610ab490613386565b60405180910390fd5b600360008373ffffffffffffffffffffffffffffffffffffffff1673ffffffffffffffffffffffffffffffffffffffff168152602001908152602001600020549050919050565b606060018054610b1390613765565b80601f0160208091040260200160405190810160405280929190818152602001828054610b3f90613765565b8015610b8c5780601f10610b6157610100808354040283529160200191610b8c565b820191906000526020600020905b815481529060010190602001808311610b6f57829003601f168201915b5050505050905090565b610b9e611566565b73ffffffffffffffffffffffffffffffffffffffff168273ffffffffffffffffffffffffffffffffffffffff161415610c0c576040517f08c379a0000000000000000000000000000000000000000000000000000000008152600401610c0390613326565b60405180910390fd5b8060056000610c19611566565b73ffffffffffffffffffffffffffffffffffffffff1673ffffffffffffffffffffffffffffffffffffffff16815260200190815260200160002060008473ffffffffffffffffffffffffffffffffffffffff1673ffffffffffffffffffffffffffffffffffffffff16815260200190815260200160002060006101000a81548160ff0219169083151502179055508173ffffffffffffffffffffffffffffffffffffffff16610cc6611566565b73ffffffffffffffffffffffffffffffffffffffff167f17307eab39ab6107e8899845ad3d59bd9653f200f220920489ca2b5937696c3183604051610d0b9190613289565b60405180910390a35050565b60606000610d4b610d2784611961565b604051602001610d37919061312c565b604051602081830303815290604052611b0e565b9050600c8054905081610d5e91906137e0565b9050600c8181548110610d9a577f4e487b7100000000000000000000000000000000000000000000000000000000600052603260045260246000fd5b906000526020600020018054610daf90613765565b80601f0160208091040260200160405190810160405280929190818152602001828054610ddb90613765565b8015610e285780601f10610dfd57610100808354040283529160200191610e28565b820191906000526020600020905b815481529060010190602001808311610e0b57829003601f168201915b5050505050915050919050565b610e46610e40611566565b83611627565b610e85576040517f08c379a0000000000000000000000000000000000000000000000000000000008152600401610e7c906134a6565b60405180910390fd5b610e9184848484611b41565b50505050565b60606000610ecb610ea784611961565b604051602001610eb7919061310a565b604051602081830303815290604052611b0e565b9050600d8054905081610ede91906137e0565b9050600d8181548110610f1a577f4e487b7100000000000000000000000000000000000000000000000000000000600052603260045260246000fd5b906000526020600020018054610f2f90613765565b80601f0160208091040260200160405190810160405280929190818152602001828054610f5b90613765565b8015610fa85780601f10610f7d57610100808354040283529160200191610fa8565b820191906000526020600020905b815481529060010190602001808311610f8b57829003601f168201915b5050505050915050919050565b6060610fc0826114fa565b610fff576040517f08c379a0000000000000000000000000000000000000000000000000000000008152600401610ff690613406565b60405180910390fd5b600060066000848152602001908152602001600020805461101f90613765565b80601f016020809104026020016040519081016040528092919081815260200182805461104b90613765565b80156110985780601f1061106d57610100808354040283529160200191611098565b820191906000526020600020905b81548152906001019060200180831161107b57829003601f168201915b5050505050905060006110a9611b9d565b90506000815114156110bf578192505050611102565b6000825111156110f45780826040516020016110dc92919061306c565b60405160208183030381529060405292505050611102565b6110fd84611bb4565b925050505b919050565b60006111136007611c5b565b905060006111208261073e565b9050600061112d83610d17565b9050600061113a84610e97565b9050600083838360405160200161115393929190613090565b6040516020818303038152906040529050600061116f8661087c565b9050600060088260098560405160200161118c94939291906130c1565b604051602081830303815290604052905060006111d1846111ac84611c69565b6040516020016111bd92919061314e565b604051602081830303815290604052611c69565b90506000816040516020016111e691906131b5565b60405160208183030381529060405290506112356040518060400160405280601581526020017f0a2d2d2d2d2d2d2d2d2d2d2d2d2d2d2d2d2d2d2d2d00000000000000000000008152506113f7565b61123e816113f7565b61127c6040518060400160405280601581526020017f2d2d2d2d2d2d2d2d2d2d2d2d2d2d2d2d2d2d2d2d0a00000000000000000000008152506113f7565b6112ba6040518060400160405280601d81526020017f0a2d2d2d2d2d66696e616c5376672d2d2d2d2d2d2d2d2d2d2d2d2d2d2d0000008152506113f7565b6112c3836113f7565b6113016040518060400160405280601581526020017f2d2d2d2d2d2d2d2d2d2d2d2d2d2d2d2d2d2d2d2d0a00000000000000000000008152506113f7565b61130b338a611e27565b6113158982611e45565b61131f6007611eb9565b7febb98688741ffa4c7589bf325de30cf7becb63de567842e1ccdb6cb949fdc82c338a604051611350929190613260565b60405180910390a1505050505050505050565b6000600560008473ffffffffffffffffffffffffffffffffffffffff1673ffffffffffffffffffffffffffffffffffffffff16815260200190815260200160002060008373ffffffffffffffffffffffffffffffffffffffff1673ffffffffffffffffffffffffffffffffffffffff16815260200190815260200160002060009054906101000a900460ff16905092915050565b61148d8160405160240161140b91906132a4565b6040516020818303038152906040527f41304fac000000000000000000000000000000000000000000000000000000007bffffffffffffffffffffffffffffffffffffffffffffffffffffffff19166020820180517bffffffffffffffffffffffffffffffffffffffffffffffffffffffff8381831617835250505050611ecf565b50565b60007f01ffc9a7000000000000000000000000000000000000000000000000000000007bffffffffffffffffffffffffffffffffffffffffffffffffffffffff1916827bffffffffffffffffffffffffffffffffffffffffffffffffffffffff1916149050919050565b60008073ffffffffffffffffffffffffffffffffffffffff166002600084815260200190815260200160002060009054906101000a900473ffffffffffffffffffffffffffffffffffffffff1673ffffffffffffffffffffffffffffffffffffffff1614159050919050565b600033905090565b816004600083815260200190815260200160002060006101000a81548173ffffffffffffffffffffffffffffffffffffffff021916908373ffffffffffffffffffffffffffffffffffffffff160217905550808273ffffffffffffffffffffffffffffffffffffffff166115e18361099a565b73ffffffffffffffffffffffffffffffffffffffff167f8c5be1e5ebec7d5bd14f71427d1e84f3dd0314c0f7b2291e5b200ac8c7c3b92560405160405180910390a45050565b6000611632826114fa565b611671576040517f08c379a000000000000000000000000000000000000000000000000000000000815260040161166890613346565b60405180910390fd5b600061167c8361099a565b90508073ffffffffffffffffffffffffffffffffffffffff168473ffffffffffffffffffffffffffffffffffffffff1614806116eb57508373ffffffffffffffffffffffffffffffffffffffff166116d384610541565b73ffffffffffffffffffffffffffffffffffffffff16145b806116fc57506116fb8185611363565b5b91505092915050565b8273ffffffffffffffffffffffffffffffffffffffff166117258261099a565b73ffffffffffffffffffffffffffffffffffffffff161461177b576040517f08c379a000000000000000000000000000000000000000000000000000000000815260040161177290613446565b60405180910390fd5b600073ffffffffffffffffffffffffffffffffffffffff168273ffffffffffffffffffffffffffffffffffffffff1614156117eb576040517f08c379a00000000000000000000000000000000000000000000000000000000081526004016117e290613306565b60405180910390fd5b6117f6838383611ef8565b61180160008261156e565b6001600360008573ffffffffffffffffffffffffffffffffffffffff1673ffffffffffffffffffffffffffffffffffffffff1681526020019081526020016000206000828254611851919061367b565b925050819055506001600360008473ffffffffffffffffffffffffffffffffffffffff1673ffffffffffffffffffffffffffffffffffffffff16815260200190815260200160002060008282546118a8919061359a565b92505081905550816002600083815260200190815260200160002060006101000a81548173ffffffffffffffffffffffffffffffffffffffff021916908373ffffffffffffffffffffffffffffffffffffffff160217905550808273ffffffffffffffffffffffffffffffffffffffff168473ffffffffffffffffffffffffffffffffffffffff167fddf252ad1be2c89b69c2b068fc378daa952ba7f163c4a11628f55a4df523b3ef60405160405180910390a4505050565b606060008214156119a9576040518060400160405280600181526020017f30000000000000000000000000000000000000000000000000000000000000008152509050611b09565b600082905060005b600082146119db5780806119c490613797565b915050600a826119d491906135f0565b91506119b1565b60008167ffffffffffffffff811115611a1d577f4e487b7100000000000000000000000000000000000000000000000000000000600052604160045260246000fd5b6040519080825280601f01601f191660200182016040528015611a4f5781602001600182028036833780820191505090505b5090505b60008514611b0257600182611a68919061367b565b9150600a85611a7791906137e0565b6030611a83919061359a565b60f81b818381518110611abf577f4e487b7100000000000000000000000000000000000000000000000000000000600052603260045260246000fd5b60200101907effffffffffffffffffffffffffffffffffffffffffffffffffffffffffffff1916908160001a905350600a85611afb91906135f0565b9450611a53565b8093505050505b919050565b600081604051602001611b219190613055565b6040516020818303038152906040528051906020012060001c9050919050565b611b4c848484611705565b611b5884848484611efd565b611b97576040517f08c379a0000000000000000000000000000000000000000000000000000000008152600401611b8e906132c6565b60405180910390fd5b50505050565b606060405180602001604052806000815250905090565b6060611bbf826114fa565b611bfe576040517f08c379a0000000000000000000000000000000000000000000000000000000008152600401611bf590613466565b60405180910390fd5b6000611c08611b9d565b90506000815111611c285760405180602001604052806000815250611c53565b80611c3284611961565b604051602001611c4392919061306c565b6040516020818303038152906040525b915050919050565b600081600001549050919050565b60606000825190506000811415611c925760405180602001604052806000815250915050611e22565b60006003600283611ca3919061359a565b611cad91906135f0565b6004611cb99190613621565b90506000602082611cca919061359a565b67ffffffffffffffff811115611d09577f4e487b7100000000000000000000000000000000000000000000000000000000600052604160045260246000fd5b6040519080825280601f01601f191660200182016040528015611d3b5781602001600182028036833780820191505090505b509050600060405180606001604052806040815260200161393b604091399050600181016020830160005b86811015611ddf5760038101905062ffffff818a015116603f8160121c168401518060081b905060ff603f83600c1c1686015116810190508060081b905060ff603f8360061c1686015116810190508060081b905060ff603f831686015116810190508060e01b90508084526004840193505050611d66565b506003860660018114611df95760028114611e0957611e14565b613d3d60f01b6002830352611e14565b603d60f81b60018303525b508484525050819450505050505b919050565b611e41828260405180602001604052806000815250612094565b5050565b611e4e826114fa565b611e8d576040517f08c379a0000000000000000000000000000000000000000000000000000000008152600401611e84906133c6565b60405180910390fd5b80600660008481526020019081526020016000209080519060200190611eb49291906122d0565b505050565b6001816000016000828254019250508190555050565b60008151905060006a636f6e736f6c652e6c6f679050602083016000808483855afa5050505050565b505050565b6000611f1e8473ffffffffffffffffffffffffffffffffffffffff166120ef565b15612087578373ffffffffffffffffffffffffffffffffffffffff1663150b7a02611f47611566565b8786866040518563ffffffff1660e01b8152600401611f699493929190613214565b602060405180830381600087803b158015611f8357600080fd5b505af1925050508015611fb457506040513d601f19601f82011682018060405250810190611fb19190612614565b60015b612037573d8060008114611fe4576040519150601f19603f3d011682016040523d82523d6000602084013e611fe9565b606091505b5060008151141561202f576040517f08c379a0000000000000000000000000000000000000000000000000000000008152600401612026906132c6565b60405180910390fd5b805181602001fd5b63150b7a0260e01b7bffffffffffffffffffffffffffffffffffffffffffffffffffffffff1916817bffffffffffffffffffffffffffffffffffffffffffffffffffffffff19161491505061208c565b600190505b949350505050565b61209e8383612102565b6120ab6000848484611efd565b6120ea576040517f08c379a00000000000000000000000000000000000000000000000000000000081526004016120e1906132c6565b60405180910390fd5b505050565b600080823b905060008111915050919050565b600073ffffffffffffffffffffffffffffffffffffffff168273ffffffffffffffffffffffffffffffffffffffff161415612172576040517f08c379a0000000000000000000000000000000000000000000000000000000008152600401612169906133e6565b60405180910390fd5b61217b816114fa565b156121bb576040517f08c379a00000000000000000000000000000000000000000000000000000000081526004016121b2906132e6565b60405180910390fd5b6121c760008383611ef8565b6001600360008473ffffffffffffffffffffffffffffffffffffffff1673ffffffffffffffffffffffffffffffffffffffff1681526020019081526020016000206000828254612217919061359a565b92505081905550816002600083815260200190815260200160002060006101000a81548173ffffffffffffffffffffffffffffffffffffffff021916908373ffffffffffffffffffffffffffffffffffffffff160217905550808273ffffffffffffffffffffffffffffffffffffffff16600073ffffffffffffffffffffffffffffffffffffffff167fddf252ad1be2c89b69c2b068fc378daa952ba7f163c4a11628f55a4df523b3ef60405160405180910390a45050565b8280546122dc90613765565b90600052602060002090601f0160209004810192826122fe5760008555612345565b82601f1061231757805160ff1916838001178555612345565b82800160010185558215612345579182015b82811115612344578251825591602001919060010190612329565b5b5090506123529190612356565b5090565b5b8082111561236f576000816000905550600101612357565b5090565b600061238661238184613512565b6134e1565b90508281526020810184848401111561239e57600080fd5b6123a9848285613723565b509392505050565b6000813590506123c0816138de565b92915050565b6000813590506123d5816138f5565b92915050565b6000813590506123ea8161390c565b92915050565b6000815190506123ff8161390c565b92915050565b600082601f83011261241657600080fd5b8135612426848260208601612373565b91505092915050565b60008135905061243e81613923565b92915050565b60006020828403121561245657600080fd5b6000612464848285016123b1565b91505092915050565b6000806040838503121561248057600080fd5b600061248e858286016123b1565b925050602061249f858286016123b1565b9150509250929050565b6000806000606084860312156124be57600080fd5b60006124cc868287016123b1565b93505060206124dd868287016123b1565b92505060406124ee8682870161242f565b9150509250925092565b6000806000806080858703121561250e57600080fd5b600061251c878288016123b1565b945050602061252d878288016123b1565b935050604061253e8782880161242f565b925050606085013567ffffffffffffffff81111561255b57600080fd5b61256787828801612405565b91505092959194509250565b6000806040838503121561258657600080fd5b6000612594858286016123b1565b92505060206125a5858286016123c6565b9150509250929050565b600080604083850312156125c257600080fd5b60006125d0858286016123b1565b92505060206125e18582860161242f565b9150509250929050565b6000602082840312156125fd57600080fd5b600061260b848285016123db565b91505092915050565b60006020828403121561262657600080fd5b6000612634848285016123f0565b91505092915050565b60006020828403121561264f57600080fd5b600061265d8482850161242f565b91505092915050565b61266f816136af565b82525050565b61267e816136c1565b82525050565b600061268f82613557565b612699818561356d565b93506126a9818560208601613732565b6126b2816138cd565b840191505092915050565b60006126c882613562565b6126d2818561357e565b93506126e2818560208601613732565b6126eb816138cd565b840191505092915050565b600061270182613562565b61270b818561358f565b935061271b818560208601613732565b80840191505092915050565b6000815461273481613765565b61273e818661358f565b94506001821660008114612759576001811461276a5761279d565b60ff1983168652818601935061279d565b61277385613542565b60005b8381101561279557815481890152600182019150602081019050612776565b838801955050505b50505092915050565b60006127b360328361357e565b91507f4552433732313a207472616e7366657220746f206e6f6e20455243373231526560008301527f63656976657220696d706c656d656e74657200000000000000000000000000006020830152604082019050919050565b6000612819601c8361357e565b91507f4552433732313a20746f6b656e20616c7265616479206d696e746564000000006000830152602082019050919050565b6000612859600a8361358f565b91507f54484952445f574f5244000000000000000000000000000000000000000000006000830152600a82019050919050565b600061289960248361357e565b91507f4552433732313a207472616e7366657220746f20746865207a65726f2061646460008301527f72657373000000000000000000000000000000000000000000000000000000006020830152604082019050919050565b60006128ff60198361357e565b91507f4552433732313a20617070726f766520746f2063616c6c6572000000000000006000830152602082019050919050565b600061293f60638361358f565b91507f222c20226465736372697074696f6e223a20224120686967686c79206163636c60008301527f61696d656420636f6c6c656374696f6e206f6620737175617265732e222c202260208301527f696d616765223a2022646174613a696d6167652f7376672b786d6c3b6261736560408301527f36342c00000000000000000000000000000000000000000000000000000000006060830152606382019050919050565b60006129f1600b8361358f565b91507f5345434f4e445f574f52440000000000000000000000000000000000000000006000830152600b82019050919050565b6000612a31602c8361357e565b91507f4552433732313a206f70657261746f7220717565727920666f72206e6f6e657860008301527f697374656e7420746f6b656e00000000000000000000000000000000000000006020830152604082019050919050565b6000612a97600d8361358f565b91507f3c2f746578743e3c2f7376673e000000000000000000000000000000000000006000830152600d82019050919050565b6000612ad760388361357e565b91507f4552433732313a20617070726f76652063616c6c6572206973206e6f74206f7760008301527f6e6572206e6f7220617070726f76656420666f7220616c6c00000000000000006020830152604082019050919050565b6000612b3d602a8361357e565b91507f4552433732313a2062616c616e636520717565727920666f7220746865207a6560008301527f726f2061646472657373000000000000000000000000000000000000000000006020830152604082019050919050565b6000612ba360298361357e565b91507f4552433732313a206f776e657220717565727920666f72206e6f6e657869737460008301527f656e7420746f6b656e00000000000000000000000000000000000000000000006020830152604082019050919050565b6000612c09602e8361357e565b91507f45524337323155524953746f726167653a2055524920736574206f66206e6f6e60008301527f6578697374656e7420746f6b656e0000000000000000000000000000000000006020830152604082019050919050565b6000612c6f60028361358f565b91507f227d0000000000000000000000000000000000000000000000000000000000006000830152600282019050919050565b6000612caf60208361357e565b91507f4552433732313a206d696e7420746f20746865207a65726f20616464726573736000830152602082019050919050565b6000612cef60318361357e565b91507f45524337323155524953746f726167653a2055524920717565727920666f722060008301527f6e6f6e6578697374656e7420746f6b656e0000000000000000000000000000006020830152604082019050919050565b6000612d55602c8361357e565b91507f4552433732313a20617070726f76656420717565727920666f72206e6f6e657860008301527f697374656e7420746f6b656e00000000000000000000000000000000000000006020830152604082019050919050565b6000612dbb60298361357e565b91507f4552433732313a207472616e73666572206f6620746f6b656e2074686174206960008301527f73206e6f74206f776e00000000000000000000000000000000000000000000006020830152604082019050919050565b6000612e21602f8361357e565b91507f4552433732314d657461646174613a2055524920717565727920666f72206e6f60008301527f6e6578697374656e7420746f6b656e00000000000000000000000000000000006020830152604082019050919050565b6000612e87600a8361358f565b91507f7b226e616d65223a2022000000000000000000000000000000000000000000006000830152600a82019050919050565b6000612ec760218361357e565b91507f4552433732313a20617070726f76616c20746f2063757272656e74206f776e6560008301527f72000000000000000000000000000000000000000000000000000000000000006020830152604082019050919050565b6000612f2d600a8361358f565b91507f46495253545f574f5244000000000000000000000000000000000000000000006000830152600a82019050919050565b6000612f6d601d8361358f565b91507f646174613a6170706c69636174696f6e2f6a736f6e3b6261736536342c0000006000830152601d82019050919050565b6000612fad60318361357e565b91507f4552433732313a207472616e736665722063616c6c6572206973206e6f74206f60008301527f776e6572206e6f7220617070726f7665640000000000000000000000000000006020830152604082019050919050565b600061301360058361358f565b91507f434f4c4f520000000000000000000000000000000000000000000000000000006000830152600582019050919050565b61304f81613719565b82525050565b600061306182846126f6565b915081905092915050565b600061307882856126f6565b915061308482846126f6565b91508190509392505050565b600061309c82866126f6565b91506130a882856126f6565b91506130b482846126f6565b9150819050949350505050565b60006130cd8287612727565b91506130d982866126f6565b91506130e58285612727565b91506130f182846126f6565b91506130fc82612a8a565b915081905095945050505050565b60006131158261284c565b915061312182846126f6565b915081905092915050565b6000613137826129e4565b915061314382846126f6565b915081905092915050565b600061315982612e7a565b915061316582856126f6565b915061317082612932565b915061317c82846126f6565b915061318782612c62565b91508190509392505050565b600061319e82612f20565b91506131aa82846126f6565b915081905092915050565b60006131c082612f60565b91506131cc82846126f6565b915081905092915050565b60006131e282613006565b91506131ee82846126f6565b915081905092915050565b600060208201905061320e6000830184612666565b92915050565b60006080820190506132296000830187612666565b6132366020830186612666565b6132436040830185613046565b81810360608301526132558184612684565b905095945050505050565b60006040820190506132756000830185612666565b6132826020830184613046565b9392505050565b600060208201905061329e6000830184612675565b92915050565b600060208201905081810360008301526132be81846126bd565b905092915050565b600060208201905081810360008301526132df816127a6565b9050919050565b600060208201905081810360008301526132ff8161280c565b9050919050565b6000602082019050818103600083015261331f8161288c565b9050919050565b6000602082019050818103600083015261333f816128f2565b9050919050565b6000602082019050818103600083015261335f81612a24565b9050919050565b6000602082019050818103600083015261337f81612aca565b9050919050565b6000602082019050818103600083015261339f81612b30565b9050919050565b600060208201905081810360008301526133bf81612b96565b9050919050565b600060208201905081810360008301526133df81612bfc565b9050919050565b600060208201905081810360008301526133ff81612ca2565b9050919050565b6000602082019050818103600083015261341f81612ce2565b9050919050565b6000602082019050818103600083015261343f81612d48565b9050919050565b6000602082019050818103600083015261345f81612dae565b9050919050565b6000602082019050818103600083015261347f81612e14565b9050919050565b6000602082019050818103600083015261349f81612eba565b9050919050565b600060208201905081810360008301526134bf81612fa0565b9050919050565b60006020820190506134db6000830184613046565b92915050565b6000604051905081810181811067ffffffffffffffff821117156135085761350761389e565b5b8060405250919050565b600067ffffffffffffffff82111561352d5761352c61389e565b5b601f19601f8301169050602081019050919050565b60008190508160005260206000209050919050565b600081519050919050565b600081519050919050565b600082825260208201905092915050565b600082825260208201905092915050565b600081905092915050565b60006135a582613719565b91506135b083613719565b9250827fffffffffffffffffffffffffffffffffffffffffffffffffffffffffffffffff038211156135e5576135e4613811565b5b828201905092915050565b60006135fb82613719565b915061360683613719565b92508261361657613615613840565b5b828204905092915050565b600061362c82613719565b915061363783613719565b9250817fffffffffffffffffffffffffffffffffffffffffffffffffffffffffffffffff04831182151516156136705761366f613811565b5b828202905092915050565b600061368682613719565b915061369183613719565b9250828210156136a4576136a3613811565b5b828203905092915050565b60006136ba826136f9565b9050919050565b60008115159050919050565b60007fffffffff0000000000000000000000000000000000000000000000000000000082169050919050565b600073ffffffffffffffffffffffffffffffffffffffff82169050919050565b6000819050919050565b82818337600083830152505050565b60005b83811015613750578082015181840152602081019050613735565b8381111561375f576000848401525b50505050565b6000600282049050600182168061377d57607f821691505b602082108114156137915761379061386f565b5b50919050565b60006137a282613719565b91507fffffffffffffffffffffffffffffffffffffffffffffffffffffffffffffffff8214156137d5576137d4613811565b5b600182019050919050565b60006137eb82613719565b91506137f683613719565b92508261380657613805613840565b5b828206905092915050565b7f4e487b7100000000000000000000000000000000000000000000000000000000600052601160045260246000fd5b7f4e487b7100000000000000000000000000000000000000000000000000000000600052601260045260246000fd5b7f4e487b7100000000000000000000000000000000000000000000000000000000600052602260045260246000fd5b7f4e487b7100000000000000000000000000000000000000000000000000000000600052604160045260246000fd5b6000601f19601f8301169050919050565b6138e7816136af565b81146138f257600080fd5b50565b6138fe816136c1565b811461390957600080fd5b50565b613915816136cd565b811461392057600080fd5b50565b61392c81613719565b811461393757600080fd5b5056fe4142434445464748494a4b4c4d4e4f505152535455565758595a6162636465666768696a6b6c6d6e6f707172737475767778797a303132333435363738392b2fa264697066735822122007cc8f1279ad634b4a0c9f15c2d320e97437d32e82ef81584b5a7827d892804864736f6c634300080000333c73766720786d6c6e733d27687474703a2f2f7777772e77332e6f72672f323030302f73766727207072657365727665417370656374526174696f3d27784d696e594d696e206d656574272076696577426f783d273020302033353020333530273e3c7374796c653e2e62617365207b2066696c6c3a2077686974653b20666f6e742d66616d696c793a2073657269663b20666f6e742d73697a653a20323470783b207d3c2f7374796c653e3c726563742077696474683d273130302527206865696768743d2731303025272066696c6c3d27272f3e3c7465787420783d273530252720793d273530252720636c6173733d27626173652720646f6d696e616e742d626173656c696e653d276d6964646c652720746578742d616e63686f723d276d6964646c65273e",
  "linkReferences": {},
  "deployedLinkReferences": {}
}